{
  "_format": "hh-sol-artifact-1",
  "contractName": "Token",
  "sourceName": "contracts/Token.sol",
  "abi": [
    {
      "inputs": [
        {
          "internalType": "string",
          "name": "name",
          "type": "string"
        },
        {
          "internalType": "string",
          "name": "symbol",
          "type": "string"
        },
        {
          "internalType": "uint256",
          "name": "InitSupply",
          "type": "uint256"
        }
      ],
      "stateMutability": "nonpayable",
      "type": "constructor"
    },
    {
      "anonymous": false,
      "inputs": [
        {
          "indexed": true,
          "internalType": "address",
          "name": "owner",
          "type": "address"
        },
        {
          "indexed": true,
          "internalType": "address",
          "name": "spender",
          "type": "address"
        },
        {
          "indexed": false,
          "internalType": "uint256",
          "name": "value",
          "type": "uint256"
        }
      ],
      "name": "Approval",
      "type": "event"
    },
    {
      "anonymous": false,
      "inputs": [
        {
          "indexed": true,
          "internalType": "address",
          "name": "from",
          "type": "address"
        },
        {
          "indexed": true,
          "internalType": "address",
          "name": "to",
          "type": "address"
        },
        {
          "indexed": false,
          "internalType": "uint256",
          "name": "value",
          "type": "uint256"
        }
      ],
      "name": "Transfer",
      "type": "event"
    },
    {
      "inputs": [
        {
          "internalType": "address",
          "name": "owner",
          "type": "address"
        },
        {
          "internalType": "address",
          "name": "spender",
          "type": "address"
        }
      ],
      "name": "allowance",
      "outputs": [
        {
          "internalType": "uint256",
          "name": "",
          "type": "uint256"
        }
      ],
      "stateMutability": "view",
      "type": "function"
    },
    {
      "inputs": [
        {
          "internalType": "address",
          "name": "spender",
          "type": "address"
        },
        {
          "internalType": "uint256",
          "name": "amount",
          "type": "uint256"
        }
      ],
      "name": "approve",
      "outputs": [
        {
          "internalType": "bool",
          "name": "",
          "type": "bool"
        }
      ],
      "stateMutability": "nonpayable",
      "type": "function"
    },
    {
      "inputs": [
        {
          "internalType": "address",
          "name": "account",
          "type": "address"
        }
      ],
      "name": "balanceOf",
      "outputs": [
        {
          "internalType": "uint256",
          "name": "",
          "type": "uint256"
        }
      ],
      "stateMutability": "view",
      "type": "function"
    },
    {
      "inputs": [],
      "name": "decimals",
      "outputs": [
        {
          "internalType": "uint8",
          "name": "",
          "type": "uint8"
        }
      ],
      "stateMutability": "view",
      "type": "function"
    },
    {
      "inputs": [
        {
          "internalType": "address",
          "name": "spender",
          "type": "address"
        },
        {
          "internalType": "uint256",
          "name": "subtractedValue",
          "type": "uint256"
        }
      ],
      "name": "decreaseAllowance",
      "outputs": [
        {
          "internalType": "bool",
          "name": "",
          "type": "bool"
        }
      ],
      "stateMutability": "nonpayable",
      "type": "function"
    },
    {
      "inputs": [
        {
          "internalType": "address",
          "name": "user",
          "type": "address"
        }
      ],
      "name": "getBalance",
      "outputs": [
        {
          "internalType": "uint256",
          "name": "",
          "type": "uint256"
        }
      ],
      "stateMutability": "view",
      "type": "function"
    },
    {
      "inputs": [],
      "name": "getSummary",
      "outputs": [
        {
          "internalType": "string",
          "name": "",
          "type": "string"
        },
        {
          "internalType": "string",
          "name": "",
          "type": "string"
        },
        {
          "internalType": "uint256",
          "name": "",
          "type": "uint256"
        }
      ],
      "stateMutability": "view",
      "type": "function"
    },
    {
      "inputs": [
        {
          "internalType": "address",
          "name": "spender",
          "type": "address"
        },
        {
          "internalType": "uint256",
          "name": "addedValue",
          "type": "uint256"
        }
      ],
      "name": "increaseAllowance",
      "outputs": [
        {
          "internalType": "bool",
          "name": "",
          "type": "bool"
        }
      ],
      "stateMutability": "nonpayable",
      "type": "function"
    },
    {
      "inputs": [],
      "name": "name",
      "outputs": [
        {
          "internalType": "string",
          "name": "",
          "type": "string"
        }
      ],
      "stateMutability": "view",
      "type": "function"
    },
    {
      "inputs": [],
      "name": "symbol",
      "outputs": [
        {
          "internalType": "string",
          "name": "",
          "type": "string"
        }
      ],
      "stateMutability": "view",
      "type": "function"
    },
    {
      "inputs": [],
      "name": "totalSupply",
      "outputs": [
        {
          "internalType": "uint256",
          "name": "",
          "type": "uint256"
        }
      ],
      "stateMutability": "view",
      "type": "function"
    },
    {
      "inputs": [
        {
          "internalType": "address",
          "name": "to",
          "type": "address"
        },
        {
          "internalType": "uint256",
          "name": "amount",
          "type": "uint256"
        }
      ],
      "name": "transfer",
      "outputs": [
        {
          "internalType": "bool",
          "name": "",
          "type": "bool"
        }
      ],
      "stateMutability": "nonpayable",
      "type": "function"
    },
    {
      "inputs": [
        {
          "internalType": "address",
          "name": "from",
          "type": "address"
        },
        {
          "internalType": "address",
          "name": "to",
          "type": "address"
        },
        {
          "internalType": "uint256",
          "name": "amount",
          "type": "uint256"
        }
      ],
      "name": "transferFrom",
      "outputs": [
        {
          "internalType": "bool",
          "name": "",
          "type": "bool"
        }
      ],
      "stateMutability": "nonpayable",
      "type": "function"
    }
  ],
  "bytecode": "0x60806040523480156200001157600080fd5b5060405162001d7a38038062001d7a8339818101604052810190620000379190620003dd565b8282816003908051906020019062000051929190620002a4565b5080600490805190602001906200006a929190620002a4565b50505033600560006101000a81548173ffffffffffffffffffffffffffffffffffffffff021916908373ffffffffffffffffffffffffffffffffffffffff1602179055506200010f600560009054906101000a900473ffffffffffffffffffffffffffffffffffffffff16620000e56200011860201b60201c565b60ff16600a620000f6919062000604565b8362000103919062000741565b6200012160201b60201c565b5050506200093c565b60006012905090565b600073ffffffffffffffffffffffffffffffffffffffff168273ffffffffffffffffffffffffffffffffffffffff16141562000194576040517f08c379a00000000000000000000000000000000000000000000000000000000081526004016200018b906200049d565b60405180910390fd5b620001a8600083836200029a60201b60201c565b8060026000828254620001bc91906200054c565b92505081905550806000808473ffffffffffffffffffffffffffffffffffffffff1673ffffffffffffffffffffffffffffffffffffffff16815260200190815260200160002060008282546200021391906200054c565b925050819055508173ffffffffffffffffffffffffffffffffffffffff16600073ffffffffffffffffffffffffffffffffffffffff167fddf252ad1be2c89b69c2b068fc378daa952ba7f163c4a11628f55a4df523b3ef836040516200027a9190620004bf565b60405180910390a362000296600083836200029f60201b60201c565b5050565b505050565b505050565b828054620002b290620007e2565b90600052602060002090601f016020900481019282620002d6576000855562000322565b82601f10620002f157805160ff191683800117855562000322565b8280016001018555821562000322579182015b828111156200032157825182559160200191906001019062000304565b5b50905062000331919062000335565b5090565b5b808211156200035057600081600090555060010162000336565b5090565b60006200036b620003658462000505565b620004dc565b9050828152602081018484840111156200038457600080fd5b62000391848285620007ac565b509392505050565b600082601f830112620003ab57600080fd5b8151620003bd84826020860162000354565b91505092915050565b600081519050620003d78162000922565b92915050565b600080600060608486031215620003f357600080fd5b600084015167ffffffffffffffff8111156200040e57600080fd5b6200041c8682870162000399565b935050602084015167ffffffffffffffff8111156200043a57600080fd5b620004488682870162000399565b92505060406200045b86828701620003c6565b9150509250925092565b600062000474601f836200053b565b91506200048182620008f9565b602082019050919050565b6200049781620007a2565b82525050565b60006020820190508181036000830152620004b88162000465565b9050919050565b6000602082019050620004d660008301846200048c565b92915050565b6000620004e8620004fb565b9050620004f6828262000818565b919050565b6000604051905090565b600067ffffffffffffffff821115620005235762000522620008ac565b5b6200052e82620008db565b9050602081019050919050565b600082825260208201905092915050565b60006200055982620007a2565b91506200056683620007a2565b9250827fffffffffffffffffffffffffffffffffffffffffffffffffffffffffffffffff038211156200059e576200059d6200084e565b5b828201905092915050565b6000808291508390505b6001851115620005fb57808604811115620005d357620005d26200084e565b5b6001851615620005e35780820291505b8081029050620005f385620008ec565b9450620005b3565b94509492505050565b60006200061182620007a2565b91506200061e83620007a2565b92506200064d7fffffffffffffffffffffffffffffffffffffffffffffffffffffffffffffffff848462000655565b905092915050565b6000826200066757600190506200073a565b816200067757600090506200073a565b81600181146200069057600281146200069b57620006d1565b60019150506200073a565b60ff841115620006b057620006af6200084e565b5b8360020a915084821115620006ca57620006c96200084e565b5b506200073a565b5060208310610133831016604e8410600b84101617156200070b5782820a9050838111156200070557620007046200084e565b5b6200073a565b6200071a8484846001620005a9565b925090508184048111156200073457620007336200084e565b5b81810290505b9392505050565b60006200074e82620007a2565b91506200075b83620007a2565b9250817fffffffffffffffffffffffffffffffffffffffffffffffffffffffffffffffff04831182151516156200079757620007966200084e565b5b828202905092915050565b6000819050919050565b60005b83811015620007cc578082015181840152602081019050620007af565b83811115620007dc576000848401525b50505050565b60006002820490506001821680620007fb57607f821691505b602082108114156200081257620008116200087d565b5b50919050565b6200082382620008db565b810181811067ffffffffffffffff82111715620008455762000844620008ac565b5b80604052505050565b7f4e487b7100000000000000000000000000000000000000000000000000000000600052601160045260246000fd5b7f4e487b7100000000000000000000000000000000000000000000000000000000600052602260045260246000fd5b7f4e487b7100000000000000000000000000000000000000000000000000000000600052604160045260246000fd5b6000601f19601f8301169050919050565b60008160011c9050919050565b7f45524332303a206d696e7420746f20746865207a65726f206164647265737300600082015250565b6200092d81620007a2565b81146200093957600080fd5b50565b61142e806200094c6000396000f3fe608060405234801561001057600080fd5b50600436106100cf5760003560e01c80634051ddac1161008c578063a457c2d711610066578063a457c2d71461022c578063a9059cbb1461025c578063dd62ed3e1461028c578063f8b2cb4f146102bc576100cf565b80634051ddac146101be57806370a08231146101de57806395d89b411461020e576100cf565b806306fdde03146100d4578063095ea7b3146100f257806318160ddd1461012257806323b872dd14610140578063313ce56714610170578063395093511461018e575b600080fd5b6100dc6102ec565b6040516100e99190610eaf565b60405180910390f35b61010c60048036038101906101079190610cfd565b61037e565b6040516101199190610e94565b60405180910390f35b61012a6103a1565b6040516101379190610ff6565b60405180910390f35b61015a60048036038101906101559190610cae565b6103ab565b6040516101679190610e94565b60405180910390f35b6101786103da565b6040516101859190611011565b60405180910390f35b6101a860048036038101906101a39190610cfd565b6103e3565b6040516101b59190610e94565b60405180910390f35b6101c661048d565b6040516101d593929190610ed1565b60405180910390f35b6101f860048036038101906101f39190610c49565b6104b5565b6040516102059190610ff6565b60405180910390f35b6102166104fd565b6040516102239190610eaf565b60405180910390f35b61024660048036038101906102419190610cfd565b61058f565b6040516102539190610e94565b60405180910390f35b61027660048036038101906102719190610cfd565b610679565b6040516102839190610e94565b60405180910390f35b6102a660048036038101906102a19190610c72565b61069c565b6040516102b39190610ff6565b60405180910390f35b6102d660048036038101906102d19190610c49565b610723565b6040516102e39190610ff6565b60405180910390f35b6060600380546102fb90611126565b80601f016020809104026020016040519081016040528092919081815260200182805461032790611126565b80156103745780601f1061034957610100808354040283529160200191610374565b820191906000526020600020905b81548152906001019060200180831161035757829003601f168201915b5050505050905090565b600080610389610735565b905061039681858561073d565b600191505092915050565b6000600254905090565b6000806103b6610735565b90506103c3858285610908565b6103ce858585610994565b60019150509392505050565b60006012905090565b6000806103ee610735565b9050610482818585600160008673ffffffffffffffffffffffffffffffffffffffff1673ffffffffffffffffffffffffffffffffffffffff16815260200190815260200160002060008973ffffffffffffffffffffffffffffffffffffffff1673ffffffffffffffffffffffffffffffffffffffff1681526020019081526020016000205461047d9190611048565b61073d565b600191505092915050565b606080600061049a6102ec565b6104a26104fd565b6104aa6103a1565b925092509250909192565b60008060008373ffffffffffffffffffffffffffffffffffffffff1673ffffffffffffffffffffffffffffffffffffffff168152602001908152602001600020549050919050565b60606004805461050c90611126565b80601f016020809104026020016040519081016040528092919081815260200182805461053890611126565b80156105855780601f1061055a57610100808354040283529160200191610585565b820191906000526020600020905b81548152906001019060200180831161056857829003601f168201915b5050505050905090565b60008061059a610735565b90506000600160008373ffffffffffffffffffffffffffffffffffffffff1673ffffffffffffffffffffffffffffffffffffffff16815260200190815260200160002060008673ffffffffffffffffffffffffffffffffffffffff1673ffffffffffffffffffffffffffffffffffffffff16815260200190815260200160002054905083811015610660576040517f08c379a000000000000000000000000000000000000000000000000000000000815260040161065790610fd6565b60405180910390fd5b61066d828686840361073d565b60019250505092915050565b600080610684610735565b9050610691818585610994565b600191505092915050565b6000600160008473ffffffffffffffffffffffffffffffffffffffff1673ffffffffffffffffffffffffffffffffffffffff16815260200190815260200160002060008373ffffffffffffffffffffffffffffffffffffffff1673ffffffffffffffffffffffffffffffffffffffff16815260200190815260200160002054905092915050565b600061072e826104b5565b9050919050565b600033905090565b600073ffffffffffffffffffffffffffffffffffffffff168373ffffffffffffffffffffffffffffffffffffffff1614156107ad576040517f08c379a00000000000000000000000000000000000000000000000000000000081526004016107a490610fb6565b60405180910390fd5b600073ffffffffffffffffffffffffffffffffffffffff168273ffffffffffffffffffffffffffffffffffffffff16141561081d576040517f08c379a000000000000000000000000000000000000000000000000000000000815260040161081490610f36565b60405180910390fd5b80600160008573ffffffffffffffffffffffffffffffffffffffff1673ffffffffffffffffffffffffffffffffffffffff16815260200190815260200160002060008473ffffffffffffffffffffffffffffffffffffffff1673ffffffffffffffffffffffffffffffffffffffff168152602001908152602001600020819055508173ffffffffffffffffffffffffffffffffffffffff168373ffffffffffffffffffffffffffffffffffffffff167f8c5be1e5ebec7d5bd14f71427d1e84f3dd0314c0f7b2291e5b200ac8c7c3b925836040516108fb9190610ff6565b60405180910390a3505050565b6000610914848461069c565b90507fffffffffffffffffffffffffffffffffffffffffffffffffffffffffffffffff811461098e5781811015610980576040517f08c379a000000000000000000000000000000000000000000000000000000000815260040161097790610f56565b60405180910390fd5b61098d848484840361073d565b5b50505050565b600073ffffffffffffffffffffffffffffffffffffffff168373ffffffffffffffffffffffffffffffffffffffff161415610a04576040517f08c379a00000000000000000000000000000000000000000000000000000000081526004016109fb90610f96565b60405180910390fd5b600073ffffffffffffffffffffffffffffffffffffffff168273ffffffffffffffffffffffffffffffffffffffff161415610a74576040517f08c379a0000000000000000000000000000000000000000000000000000000008152600401610a6b90610f16565b60405180910390fd5b610a7f838383610c15565b60008060008573ffffffffffffffffffffffffffffffffffffffff1673ffffffffffffffffffffffffffffffffffffffff16815260200190815260200160002054905081811015610b05576040517f08c379a0000000000000000000000000000000000000000000000000000000008152600401610afc90610f76565b60405180910390fd5b8181036000808673ffffffffffffffffffffffffffffffffffffffff1673ffffffffffffffffffffffffffffffffffffffff16815260200190815260200160002081905550816000808573ffffffffffffffffffffffffffffffffffffffff1673ffffffffffffffffffffffffffffffffffffffff1681526020019081526020016000206000828254610b989190611048565b925050819055508273ffffffffffffffffffffffffffffffffffffffff168473ffffffffffffffffffffffffffffffffffffffff167fddf252ad1be2c89b69c2b068fc378daa952ba7f163c4a11628f55a4df523b3ef84604051610bfc9190610ff6565b60405180910390a3610c0f848484610c1a565b50505050565b505050565b505050565b600081359050610c2e816113ca565b92915050565b600081359050610c43816113e1565b92915050565b600060208284031215610c5b57600080fd5b6000610c6984828501610c1f565b91505092915050565b60008060408385031215610c8557600080fd5b6000610c9385828601610c1f565b9250506020610ca485828601610c1f565b9150509250929050565b600080600060608486031215610cc357600080fd5b6000610cd186828701610c1f565b9350506020610ce286828701610c1f565b9250506040610cf386828701610c34565b9150509250925092565b60008060408385031215610d1057600080fd5b6000610d1e85828601610c1f565b9250506020610d2f85828601610c34565b9150509250929050565b610d42816110b0565b82525050565b6000610d538261102c565b610d5d8185611037565b9350610d6d8185602086016110f3565b610d76816111b6565b840191505092915050565b6000610d8e602383611037565b9150610d99826111c7565b604082019050919050565b6000610db1602283611037565b9150610dbc82611216565b604082019050919050565b6000610dd4601d83611037565b9150610ddf82611265565b602082019050919050565b6000610df7602683611037565b9150610e028261128e565b604082019050919050565b6000610e1a602583611037565b9150610e25826112dd565b604082019050919050565b6000610e3d602483611037565b9150610e488261132c565b604082019050919050565b6000610e60602583611037565b9150610e6b8261137b565b604082019050919050565b610e7f816110dc565b82525050565b610e8e816110e6565b82525050565b6000602082019050610ea96000830184610d39565b92915050565b60006020820190508181036000830152610ec98184610d48565b905092915050565b60006060820190508181036000830152610eeb8186610d48565b90508181036020830152610eff8185610d48565b9050610f0e6040830184610e76565b949350505050565b60006020820190508181036000830152610f2f81610d81565b9050919050565b60006020820190508181036000830152610f4f81610da4565b9050919050565b60006020820190508181036000830152610f6f81610dc7565b9050919050565b60006020820190508181036000830152610f8f81610dea565b9050919050565b60006020820190508181036000830152610faf81610e0d565b9050919050565b60006020820190508181036000830152610fcf81610e30565b9050919050565b60006020820190508181036000830152610fef81610e53565b9050919050565b600060208201905061100b6000830184610e76565b92915050565b60006020820190506110266000830184610e85565b92915050565b600081519050919050565b600082825260208201905092915050565b6000611053826110dc565b915061105e836110dc565b9250827fffffffffffffffffffffffffffffffffffffffffffffffffffffffffffffffff0382111561109357611092611158565b5b828201905092915050565b60006110a9826110bc565b9050919050565b60008115159050919050565b600073ffffffffffffffffffffffffffffffffffffffff82169050919050565b6000819050919050565b600060ff82169050919050565b60005b838110156111115780820151818401526020810190506110f6565b83811115611120576000848401525b50505050565b6000600282049050600182168061113e57607f821691505b6020821081141561115257611151611187565b5b50919050565b7f4e487b7100000000000000000000000000000000000000000000000000000000600052601160045260246000fd5b7f4e487b7100000000000000000000000000000000000000000000000000000000600052602260045260246000fd5b6000601f19601f8301169050919050565b7f45524332303a207472616e7366657220746f20746865207a65726f206164647260008201527f6573730000000000000000000000000000000000000000000000000000000000602082015250565b7f45524332303a20617070726f766520746f20746865207a65726f20616464726560008201527f7373000000000000000000000000000000000000000000000000000000000000602082015250565b7f45524332303a20696e73756666696369656e7420616c6c6f77616e6365000000600082015250565b7f45524332303a207472616e7366657220616d6f756e742065786365656473206260008201527f616c616e63650000000000000000000000000000000000000000000000000000602082015250565b7f45524332303a207472616e736665722066726f6d20746865207a65726f20616460008201527f6472657373000000000000000000000000000000000000000000000000000000602082015250565b7f45524332303a20617070726f76652066726f6d20746865207a65726f2061646460008201527f7265737300000000000000000000000000000000000000000000000000000000602082015250565b7f45524332303a2064656372656173656420616c6c6f77616e63652062656c6f7760008201527f207a65726f000000000000000000000000000000000000000000000000000000602082015250565b6113d38161109e565b81146113de57600080fd5b50565b6113ea816110dc565b81146113f557600080fd5b5056fea26469706673582212209a52f9e7b1d916dc3bd4565969b3e7b609d9e5714aa0957bcf74044f591a21ef64736f6c63430008040033",
  "linkReferences": {},
  "deployedLinkReferences": {}
}