{
  "_format": "hh-sol-artifact-1",
  "contractName": "Account",
  "sourceName": "contracts/Account.sol",
  "abi": [
    {
      "inputs": [
        {
          "internalType": "address",
          "name": "_userAddress",
          "type": "address"
        },
        {
          "internalType": "string",
          "name": "_username",
          "type": "string"
        }
      ],
      "stateMutability": "nonpayable",
      "type": "constructor"
    },
    {
      "inputs": [],
      "name": "depositFunds",
      "outputs": [],
      "stateMutability": "payable",
      "type": "function"
    },
    {
      "inputs": [],
      "name": "getAccountDetails",
      "outputs": [
        {
          "internalType": "string",
          "name": "",
          "type": "string"
        },
        {
          "internalType": "address",
          "name": "",
          "type": "address"
        },
        {
          "internalType": "uint256",
          "name": "",
          "type": "uint256"
        },
        {
          "internalType": "address",
          "name": "",
          "type": "address"
        }
      ],
      "stateMutability": "view",
      "type": "function"
    },
    {
      "inputs": [],
      "name": "getAcctBalance",
      "outputs": [
        {
          "internalType": "uint256",
          "name": "",
          "type": "uint256"
        }
      ],
      "stateMutability": "view",
      "type": "function"
    },
    {
      "inputs": [
        {
          "internalType": "uint256",
          "name": "_amount",
          "type": "uint256"
        },
        {
          "internalType": "address",
          "name": "_to",
          "type": "address"
        }
      ],
      "name": "transferFunds",
      "outputs": [],
      "stateMutability": "payable",
      "type": "function"
    },
    {
      "inputs": [
        {
          "internalType": "uint256",
          "name": "_amount",
          "type": "uint256"
        }
      ],
      "name": "withdrawFunds",
      "outputs": [],
      "stateMutability": "payable",
      "type": "function"
    }
  ],
  "bytecode": "0x60806040523480156200001157600080fd5b50604051620013c6380380620013c68339818101604052810190620000379190620001d2565b81600160006101000a81548173ffffffffffffffffffffffffffffffffffffffff021916908373ffffffffffffffffffffffffffffffffffffffff16021790555080600090805190602001906200009092919062000099565b505050620003ea565b828054620000a790620002f5565b90600052602060002090601f016020900481019282620000cb576000855562000117565b82601f10620000e657805160ff191683800117855562000117565b8280016001018555821562000117579182015b8281111562000116578251825591602001919060010190620000f9565b5b5090506200012691906200012a565b5090565b5b80821115620001455760008160009055506001016200012b565b5090565b6000620001606200015a8462000255565b6200022c565b9050828152602081018484840111156200017957600080fd5b62000186848285620002bf565b509392505050565b6000815190506200019f81620003d0565b92915050565b600082601f830112620001b757600080fd5b8151620001c984826020860162000149565b91505092915050565b60008060408385031215620001e657600080fd5b6000620001f6858286016200018e565b925050602083015167ffffffffffffffff8111156200021457600080fd5b6200022285828601620001a5565b9150509250929050565b6000620002386200024b565b90506200024682826200032b565b919050565b6000604051905090565b600067ffffffffffffffff82111562000273576200027262000390565b5b6200027e82620003bf565b9050602081019050919050565b600062000298826200029f565b9050919050565b600073ffffffffffffffffffffffffffffffffffffffff82169050919050565b60005b83811015620002df578082015181840152602081019050620002c2565b83811115620002ef576000848401525b50505050565b600060028204905060018216806200030e57607f821691505b6020821081141562000325576200032462000361565b5b50919050565b6200033682620003bf565b810181811067ffffffffffffffff8211171562000358576200035762000390565b5b80604052505050565b7f4e487b7100000000000000000000000000000000000000000000000000000000600052602260045260246000fd5b7f4e487b7100000000000000000000000000000000000000000000000000000000600052604160045260246000fd5b6000601f19601f8301169050919050565b620003db816200028b565b8114620003e757600080fd5b50565b610fcc80620003fa6000396000f3fe60806040526004361061004a5760003560e01c806308334a261461004f578063155dd5ee1461007a578063c39869c114610096578063e2c41dbc146100c4578063f08e362f146100ce575b600080fd5b34801561005b57600080fd5b506100646100ea565b6040516100719190610c96565b60405180910390f35b610094600480360381019061008f9190610a07565b6101e3565b005b3480156100a257600080fd5b506100ab61045e565b6040516100bb9493929190610baa565b60405180910390f35b6100cc610617565b005b6100e860048036038101906100e39190610a30565b610735565b005b6000600160009054906101000a900473ffffffffffffffffffffffffffffffffffffffff1673ffffffffffffffffffffffffffffffffffffffff163373ffffffffffffffffffffffffffffffffffffffff161461017c576040517f08c379a000000000000000000000000000000000000000000000000000000000815260040161017390610c36565b60405180910390fd5b60026000600160009054906101000a900473ffffffffffffffffffffffffffffffffffffffff1673ffffffffffffffffffffffffffffffffffffffff1673ffffffffffffffffffffffffffffffffffffffff16815260200190815260200160002054905090565b600160009054906101000a900473ffffffffffffffffffffffffffffffffffffffff1673ffffffffffffffffffffffffffffffffffffffff163373ffffffffffffffffffffffffffffffffffffffff1614610273576040517f08c379a000000000000000000000000000000000000000000000000000000000815260040161026a90610c36565b60405180910390fd5b808060026000600160009054906101000a900473ffffffffffffffffffffffffffffffffffffffff1673ffffffffffffffffffffffffffffffffffffffff1673ffffffffffffffffffffffffffffffffffffffff168152602001908152602001600020541015610318576040517f08c379a000000000000000000000000000000000000000000000000000000000815260040161030f90610c76565b60405180910390fd5b61036a82600260003373ffffffffffffffffffffffffffffffffffffffff1673ffffffffffffffffffffffffffffffffffffffff168152602001908152602001600020546109b190919063ffffffff16565b600260003373ffffffffffffffffffffffffffffffffffffffff1673ffffffffffffffffffffffffffffffffffffffff1681526020019081526020016000208190555060003373ffffffffffffffffffffffffffffffffffffffff16836040516103d390610b95565b60006040518083038185875af1925050503d8060008114610410576040519150601f19603f3d011682016040523d82523d6000602084013e610415565b606091505b5050905080610459576040517f08c379a000000000000000000000000000000000000000000000000000000000815260040161045090610bf6565b60405180910390fd5b505050565b60606000806000600160009054906101000a900473ffffffffffffffffffffffffffffffffffffffff1673ffffffffffffffffffffffffffffffffffffffff163373ffffffffffffffffffffffffffffffffffffffff16146104f5576040517f08c379a00000000000000000000000000000000000000000000000000000000081526004016104ec90610c36565b60405180910390fd5b6000600160009054906101000a900473ffffffffffffffffffffffffffffffffffffffff1660026000600160009054906101000a900473ffffffffffffffffffffffffffffffffffffffff1673ffffffffffffffffffffffffffffffffffffffff1673ffffffffffffffffffffffffffffffffffffffff168152602001908152602001600020543083805461058990610dd1565b80601f01602080910402602001604051908101604052809291908181526020018280546105b590610dd1565b80156106025780601f106105d757610100808354040283529160200191610602565b820191906000526020600020905b8154815290600101906020018083116105e557829003601f168201915b50505050509350935093509350935090919293565b6000341161065a576040517f08c379a000000000000000000000000000000000000000000000000000000000815260040161065190610c16565b60405180910390fd5b6106ce3460026000600160009054906101000a900473ffffffffffffffffffffffffffffffffffffffff1673ffffffffffffffffffffffffffffffffffffffff1673ffffffffffffffffffffffffffffffffffffffff168152602001908152602001600020546109c790919063ffffffff16565b60026000600160009054906101000a900473ffffffffffffffffffffffffffffffffffffffff1673ffffffffffffffffffffffffffffffffffffffff1673ffffffffffffffffffffffffffffffffffffffff16815260200190815260200160002081905550565b600160009054906101000a900473ffffffffffffffffffffffffffffffffffffffff1673ffffffffffffffffffffffffffffffffffffffff163373ffffffffffffffffffffffffffffffffffffffff16146107c5576040517f08c379a00000000000000000000000000000000000000000000000000000000081526004016107bc90610c36565b60405180910390fd5b818060026000600160009054906101000a900473ffffffffffffffffffffffffffffffffffffffff1673ffffffffffffffffffffffffffffffffffffffff1673ffffffffffffffffffffffffffffffffffffffff16815260200190815260200160002054101561086a576040517f08c379a000000000000000000000000000000000000000000000000000000000815260040161086190610c76565b60405180910390fd5b6108bc83600260003373ffffffffffffffffffffffffffffffffffffffff1673ffffffffffffffffffffffffffffffffffffffff168152602001908152602001600020546109b190919063ffffffff16565b600260003373ffffffffffffffffffffffffffffffffffffffff1673ffffffffffffffffffffffffffffffffffffffff1681526020019081526020016000208190555060008273ffffffffffffffffffffffffffffffffffffffff168460405161092590610b95565b60006040518083038185875af1925050503d8060008114610962576040519150601f19603f3d011682016040523d82523d6000602084013e610967565b606091505b50509050806109ab576040517f08c379a00000000000000000000000000000000000000000000000000000000081526004016109a290610c56565b60405180910390fd5b50505050565b600081836109bf9190610d2e565b905092915050565b600081836109d59190610cd8565b905092915050565b6000813590506109ec81610f68565b92915050565b600081359050610a0181610f7f565b92915050565b600060208284031215610a1957600080fd5b6000610a27848285016109f2565b91505092915050565b60008060408385031215610a4357600080fd5b6000610a51858286016109f2565b9250506020610a62858286016109dd565b9150509250929050565b610a7581610d62565b82525050565b6000610a8682610cb1565b610a908185610cc7565b9350610aa0818560208601610d9e565b610aa981610e61565b840191505092915050565b6000610ac1601283610cc7565b9150610acc82610e72565b602082019050919050565b6000610ae4600e83610cc7565b9150610aef82610e9b565b602082019050919050565b6000610b07603583610cc7565b9150610b1282610ec4565b604082019050919050565b6000610b2a600083610cbc565b9150610b3582610f13565b600082019050919050565b6000610b4d601083610cc7565b9150610b5882610f16565b602082019050919050565b6000610b70601283610cc7565b9150610b7b82610f3f565b602082019050919050565b610b8f81610d94565b82525050565b6000610ba082610b1d565b9150819050919050565b60006080820190508181036000830152610bc48187610a7b565b9050610bd36020830186610a6c565b610be06040830185610b86565b610bed6060830184610a6c565b95945050505050565b60006020820190508181036000830152610c0f81610ab4565b9050919050565b60006020820190508181036000830152610c2f81610ad7565b9050919050565b60006020820190508181036000830152610c4f81610afa565b9050919050565b60006020820190508181036000830152610c6f81610b40565b9050919050565b60006020820190508181036000830152610c8f81610b63565b9050919050565b6000602082019050610cab6000830184610b86565b92915050565b600081519050919050565b600081905092915050565b600082825260208201905092915050565b6000610ce382610d94565b9150610cee83610d94565b9250827fffffffffffffffffffffffffffffffffffffffffffffffffffffffffffffffff03821115610d2357610d22610e03565b5b828201905092915050565b6000610d3982610d94565b9150610d4483610d94565b925082821015610d5757610d56610e03565b5b828203905092915050565b6000610d6d82610d74565b9050919050565b600073ffffffffffffffffffffffffffffffffffffffff82169050919050565b6000819050919050565b60005b83811015610dbc578082015181840152602081019050610da1565b83811115610dcb576000848401525b50505050565b60006002820490506001821680610de957607f821691505b60208210811415610dfd57610dfc610e32565b5b50919050565b7f4e487b7100000000000000000000000000000000000000000000000000000000600052601160045260246000fd5b7f4e487b7100000000000000000000000000000000000000000000000000000000600052602260045260246000fd5b6000601f19601f8301169050919050565b7f5769746864726177616c206661696c65642e0000000000000000000000000000600082015250565b7f496e76616c69642046756e647321000000000000000000000000000000000000600082015250565b7f536f72727920796f7520617265206e6f7420417574686f726973656420746f2060008201527f6d616b652074686973207472616e73616374696f6e0000000000000000000000602082015250565b50565b7f5472616e73666572206661696c65642e00000000000000000000000000000000600082015250565b7f496e737566696369656e742046756e6473210000000000000000000000000000600082015250565b610f7181610d62565b8114610f7c57600080fd5b50565b610f8881610d94565b8114610f9357600080fd5b5056fea2646970667358221220f2b1c69d0314df89dc446761b9bb1e340206077fffc72b7af51d5d6d29cd601764736f6c63430008040033",
  "linkReferences": {},
  "deployedLinkReferences": {}
}