{
  "_format": "hh-sol-artifact-1",
  "contractName": "Bank",
  "sourceName": "contracts/Bank.sol",
  "abi": [
    {
      "inputs": [],
      "stateMutability": "nonpayable",
      "type": "constructor"
    },
    {
      "inputs": [],
      "name": "admin",
      "outputs": [
        {
          "internalType": "address",
          "name": "",
          "type": "address"
        }
      ],
      "stateMutability": "view",
      "type": "function"
    },
    {
      "inputs": [
        {
          "internalType": "address",
          "name": "user_address",
          "type": "address"
        }
      ],
      "name": "createAccount",
      "outputs": [],
      "stateMutability": "nonpayable",
      "type": "function"
    },
    {
      "inputs": [
        {
          "internalType": "string",
          "name": "usname",
          "type": "string"
        }
      ],
      "name": "createAccountRequest",
      "outputs": [],
      "stateMutability": "nonpayable",
      "type": "function"
    },
    {
      "inputs": [
        {
          "internalType": "uint256",
          "name": "",
          "type": "uint256"
        }
      ],
      "name": "customers",
      "outputs": [
        {
          "internalType": "string",
          "name": "username",
          "type": "string"
        },
        {
          "internalType": "address",
          "name": "userAddress",
          "type": "address"
        },
        {
          "internalType": "bool",
          "name": "created",
          "type": "bool"
        },
        {
          "internalType": "address",
          "name": "acctAddress",
          "type": "address"
        }
      ],
      "stateMutability": "view",
      "type": "function"
    },
    {
      "inputs": [],
      "name": "getBankDetails",
      "outputs": [
        {
          "internalType": "address",
          "name": "",
          "type": "address"
        },
        {
          "internalType": "address",
          "name": "",
          "type": "address"
        },
        {
          "internalType": "uint256",
          "name": "",
          "type": "uint256"
        }
      ],
      "stateMutability": "view",
      "type": "function"
    },
    {
      "inputs": [],
      "name": "getCustomers",
      "outputs": [
        {
          "internalType": "uint256",
          "name": "",
          "type": "uint256"
        }
      ],
      "stateMutability": "view",
      "type": "function"
    },
    {
      "inputs": [],
      "name": "getDeployedAccounts",
      "outputs": [
        {
          "internalType": "address[]",
          "name": "",
          "type": "address[]"
        }
      ],
      "stateMutability": "view",
      "type": "function"
    },
    {
      "inputs": [
        {
          "internalType": "address",
          "name": "",
          "type": "address"
        }
      ],
      "name": "pendingCustomers",
      "outputs": [
        {
          "internalType": "uint256",
          "name": "",
          "type": "uint256"
        }
      ],
      "stateMutability": "view",
      "type": "function"
    }
  ],
  "bytecode": "0x6080604052600160055534801561001557600080fd5b50336000806101000a81548173ffffffffffffffffffffffffffffffffffffffff021916908373ffffffffffffffffffffffffffffffffffffffff16021790555030600160006101000a81548173ffffffffffffffffffffffffffffffffffffffff021916908373ffffffffffffffffffffffffffffffffffffffff1602179055506127cb806100a66000396000f3fe60806040523480156200001157600080fd5b5060043610620000945760003560e01c80639859387b11620000635780639859387b1462000135578063c0abda2a1462000155578063f1ba7127146200018e578063f851a44014620001b05762000094565b8063067ec01f1462000099578063503a37e014620000bb578063593bb70814620000df5780637d0e58251462000115575b600080fd5b620000a3620001d2565b604051620000b2919062000f03565b60405180910390f35b620000c5620002f3565b604051620000d69392919062000e92565b60405180910390f35b620000fd6004803603810190620000f7919062000bce565b620003dc565b6040516200010c919062000fe1565b60405180910390f35b6200013360048036038101906200012d919062000bfa565b620003f4565b005b6200015360048036038101906200014d919062000bce565b62000554565b005b6200017360048036038101906200016d919062000c3f565b620007fa565b60405162000185949392919062000f27565b60405180910390f35b6200019862000907565b604051620001a7919062000fe1565b60405180910390f35b620001ba620009a3565b604051620001c9919062000e75565b60405180910390f35b606060008054906101000a900473ffffffffffffffffffffffffffffffffffffffff1673ffffffffffffffffffffffffffffffffffffffff163373ffffffffffffffffffffffffffffffffffffffff161462000265576040517f08c379a00000000000000000000000000000000000000000000000000000000081526004016200025c9062000f7b565b60405180910390fd5b6006805480602002602001604051908101604052809291908181526020018280548015620002e957602002820191906000526020600020905b8160009054906101000a900473ffffffffffffffffffffffffffffffffffffffff1673ffffffffffffffffffffffffffffffffffffffff16815260200190600101908083116200029e575b5050505050905090565b60008060008060009054906101000a900473ffffffffffffffffffffffffffffffffffffffff1673ffffffffffffffffffffffffffffffffffffffff163373ffffffffffffffffffffffffffffffffffffffff16146200038a576040517f08c379a0000000000000000000000000000000000000000000000000000000008152600401620003819062000f7b565b60405180910390fd5b600160009054906101000a900473ffffffffffffffffffffffffffffffffffffffff1660008054906101000a900473ffffffffffffffffffffffffffffffffffffffff16600454925092509250909192565b60036020528060005260406000206000915090505481565b620003ff33620009c7565b1562000442576040517f08c379a0000000000000000000000000000000000000000000000000000000008152600401620004399062000fbf565b60405180910390fd5b60006002600060055481526020019081526020016000209050818160000190805190602001906200047592919062000a70565b50338160010160006101000a81548173ffffffffffffffffffffffffffffffffffffffff021916908373ffffffffffffffffffffffffffffffffffffffff16021790555060008160010160146101000a81548160ff021916908315150217905550600554600360003373ffffffffffffffffffffffffffffffffffffffff1673ffffffffffffffffffffffffffffffffffffffff16815260200190815260200160002081905550600560008154809291906200053190620011c2565b9190505550600460008154809291906200054b90620011c2565b91905055505050565b60008054906101000a900473ffffffffffffffffffffffffffffffffffffffff1673ffffffffffffffffffffffffffffffffffffffff163373ffffffffffffffffffffffffffffffffffffffff1614620005e5576040517f08c379a0000000000000000000000000000000000000000000000000000000008152600401620005dc9062000f7b565b60405180910390fd5b6000600360008373ffffffffffffffffffffffffffffffffffffffff1673ffffffffffffffffffffffffffffffffffffffff168152602001908152602001600020549050600081116200066f576040517f08c379a0000000000000000000000000000000000000000000000000000000008152600401620006669062000f9d565b60405180910390fd5b600060026000838152602001908152602001600020905060008160010160009054906101000a900473ffffffffffffffffffffffffffffffffffffffff1682600001604051620006bf9062000b01565b620006cc92919062000ecf565b604051809103906000f080158015620006e9573d6000803e3d6000fd5b50905060018260010160146101000a81548160ff0219169083151502179055506006819080600181540180825580915050600190039060005260206000200160009091909190916101000a81548173ffffffffffffffffffffffffffffffffffffffff021916908373ffffffffffffffffffffffffffffffffffffffff160217905550808260020160006101000a81548173ffffffffffffffffffffffffffffffffffffffff021916908373ffffffffffffffffffffffffffffffffffffffff1602179055506000600360008673ffffffffffffffffffffffffffffffffffffffff1673ffffffffffffffffffffffffffffffffffffffff1681526020019081526020016000208190555050505050565b60026020528060005260406000206000915090508060000180546200081f9062001156565b80601f01602080910402602001604051908101604052809291908181526020018280546200084d9062001156565b80156200089e5780601f1062000872576101008083540402835291602001916200089e565b820191906000526020600020905b8154815290600101906020018083116200088057829003601f168201915b5050505050908060010160009054906101000a900473ffffffffffffffffffffffffffffffffffffffff16908060010160149054906101000a900460ff16908060020160009054906101000a900473ffffffffffffffffffffffffffffffffffffffff16905084565b60008060009054906101000a900473ffffffffffffffffffffffffffffffffffffffff1673ffffffffffffffffffffffffffffffffffffffff163373ffffffffffffffffffffffffffffffffffffffff16146200099b576040517f08c379a0000000000000000000000000000000000000000000000000000000008152600401620009929062000f7b565b60405180910390fd5b600454905090565b60008054906101000a900473ffffffffffffffffffffffffffffffffffffffff1681565b600080600190505b600454811162000a65578273ffffffffffffffffffffffffffffffffffffffff166002600083815260200190815260200160002060010160009054906101000a900473ffffffffffffffffffffffffffffffffffffffff1673ffffffffffffffffffffffffffffffffffffffff16141562000a4f57600191505062000a6b565b808062000a5c90620011c2565b915050620009cf565b50600090505b919050565b82805462000a7e9062001156565b90600052602060002090601f01602090048101928262000aa2576000855562000aee565b82601f1062000abd57805160ff191683800117855562000aee565b8280016001018555821562000aee579182015b8281111562000aed57825182559160200191906001019062000ad0565b5b50905062000afd919062000b0f565b5090565b6113c680620013d083390190565b5b8082111562000b2a57600081600090555060010162000b10565b5090565b600062000b4562000b3f8462001027565b62000ffe565b90508281526020810184848401111562000b5e57600080fd5b62000b6b84828562001111565b509392505050565b60008135905062000b84816200139b565b92915050565b600082601f83011262000b9c57600080fd5b813562000bae84826020860162000b2e565b91505092915050565b60008135905062000bc881620013b5565b92915050565b60006020828403121562000be157600080fd5b600062000bf18482850162000b73565b91505092915050565b60006020828403121562000c0d57600080fd5b600082013567ffffffffffffffff81111562000c2857600080fd5b62000c368482850162000b8a565b91505092915050565b60006020828403121562000c5257600080fd5b600062000c628482850162000bb7565b91505092915050565b600062000c79838362000c85565b60208301905092915050565b62000c9081620010c7565b82525050565b62000ca181620010c7565b82525050565b600062000cb48262001082565b62000cc08185620010a5565b935062000ccd836200105d565b8060005b8381101562000d0457815162000ce8888262000c6b565b975062000cf58362001098565b92505060018101905062000cd1565b5085935050505092915050565b62000d1c81620010db565b82525050565b600062000d2f826200108d565b62000d3b8185620010b6565b935062000d4d81856020860162001120565b62000d58816200129d565b840191505092915050565b6000815462000d728162001156565b62000d7e8186620010b6565b9450600182166000811462000d9c576001811462000daf5762000de6565b60ff198316865260208601935062000de6565b62000dba856200106d565b60005b8381101562000dde5781548189015260018201915060208101905062000dbd565b808801955050505b50505092915050565b600062000dfe603583620010b6565b915062000e0b82620012ae565b604082019050919050565b600062000e25603683620010b6565b915062000e3282620012fd565b604082019050919050565b600062000e4c603283620010b6565b915062000e59826200134c565b604082019050919050565b62000e6f8162001107565b82525050565b600060208201905062000e8c600083018462000c96565b92915050565b600060608201905062000ea9600083018662000c96565b62000eb8602083018562000c96565b62000ec7604083018462000e64565b949350505050565b600060408201905062000ee6600083018562000c96565b818103602083015262000efa818462000d63565b90509392505050565b6000602082019050818103600083015262000f1f818462000ca7565b905092915050565b6000608082019050818103600083015262000f43818762000d22565b905062000f54602083018662000c96565b62000f63604083018562000d11565b62000f72606083018462000c96565b95945050505050565b6000602082019050818103600083015262000f968162000def565b9050919050565b6000602082019050818103600083015262000fb88162000e16565b9050919050565b6000602082019050818103600083015262000fda8162000e3d565b9050919050565b600060208201905062000ff8600083018462000e64565b92915050565b60006200100a6200101d565b90506200101882826200118c565b919050565b6000604051905090565b600067ffffffffffffffff8211156200104557620010446200126e565b5b62001050826200129d565b9050602081019050919050565b6000819050602082019050919050565b60008190508160005260206000209050919050565b600081519050919050565b600081519050919050565b6000602082019050919050565b600082825260208201905092915050565b600082825260208201905092915050565b6000620010d482620010e7565b9050919050565b60008115159050919050565b600073ffffffffffffffffffffffffffffffffffffffff82169050919050565b6000819050919050565b82818337600083830152505050565b60005b838110156200114057808201518184015260208101905062001123565b8381111562001150576000848401525b50505050565b600060028204905060018216806200116f57607f821691505b602082108114156200118657620011856200123f565b5b50919050565b62001197826200129d565b810181811067ffffffffffffffff82111715620011b957620011b86200126e565b5b80604052505050565b6000620011cf8262001107565b91507fffffffffffffffffffffffffffffffffffffffffffffffffffffffffffffffff82141562001205576200120462001210565b5b600182019050919050565b7f4e487b7100000000000000000000000000000000000000000000000000000000600052601160045260246000fd5b7f4e487b7100000000000000000000000000000000000000000000000000000000600052602260045260246000fd5b7f4e487b7100000000000000000000000000000000000000000000000000000000600052604160045260246000fd5b6000601f19601f8301169050919050565b7f4f6f70732120596f7520617265206e6f7420417574686f726973656420746f2060008201527f6d616b652074686973205472616e73616374696f6e0000000000000000000000602082015250565b7f596f752068617665206e6f742052656769737465726564206f7220796f75206160008201527f6c7265616479206861766520616e206163636f756e7400000000000000000000602082015250565b7f536f7272792074686973206164647265737320616c726561647920686176652060008201527f616e206163636f756e7420776974682075730000000000000000000000000000602082015250565b620013a681620010c7565b8114620013b257600080fd5b50565b620013c08162001107565b8114620013cc57600080fd5b5056fe60806040523480156200001157600080fd5b50604051620013c6380380620013c68339818101604052810190620000379190620001d2565b81600160006101000a81548173ffffffffffffffffffffffffffffffffffffffff021916908373ffffffffffffffffffffffffffffffffffffffff16021790555080600090805190602001906200009092919062000099565b505050620003ea565b828054620000a790620002f5565b90600052602060002090601f016020900481019282620000cb576000855562000117565b82601f10620000e657805160ff191683800117855562000117565b8280016001018555821562000117579182015b8281111562000116578251825591602001919060010190620000f9565b5b5090506200012691906200012a565b5090565b5b80821115620001455760008160009055506001016200012b565b5090565b6000620001606200015a8462000255565b6200022c565b9050828152602081018484840111156200017957600080fd5b62000186848285620002bf565b509392505050565b6000815190506200019f81620003d0565b92915050565b600082601f830112620001b757600080fd5b8151620001c984826020860162000149565b91505092915050565b60008060408385031215620001e657600080fd5b6000620001f6858286016200018e565b925050602083015167ffffffffffffffff8111156200021457600080fd5b6200022285828601620001a5565b9150509250929050565b6000620002386200024b565b90506200024682826200032b565b919050565b6000604051905090565b600067ffffffffffffffff82111562000273576200027262000390565b5b6200027e82620003bf565b9050602081019050919050565b600062000298826200029f565b9050919050565b600073ffffffffffffffffffffffffffffffffffffffff82169050919050565b60005b83811015620002df578082015181840152602081019050620002c2565b83811115620002ef576000848401525b50505050565b600060028204905060018216806200030e57607f821691505b6020821081141562000325576200032462000361565b5b50919050565b6200033682620003bf565b810181811067ffffffffffffffff8211171562000358576200035762000390565b5b80604052505050565b7f4e487b7100000000000000000000000000000000000000000000000000000000600052602260045260246000fd5b7f4e487b7100000000000000000000000000000000000000000000000000000000600052604160045260246000fd5b6000601f19601f8301169050919050565b620003db816200028b565b8114620003e757600080fd5b50565b610fcc80620003fa6000396000f3fe60806040526004361061004a5760003560e01c806308334a261461004f578063155dd5ee1461007a578063c39869c114610096578063e2c41dbc146100c4578063f08e362f146100ce575b600080fd5b34801561005b57600080fd5b506100646100ea565b6040516100719190610c96565b60405180910390f35b610094600480360381019061008f9190610a07565b6101e3565b005b3480156100a257600080fd5b506100ab61045e565b6040516100bb9493929190610baa565b60405180910390f35b6100cc610617565b005b6100e860048036038101906100e39190610a30565b610735565b005b6000600160009054906101000a900473ffffffffffffffffffffffffffffffffffffffff1673ffffffffffffffffffffffffffffffffffffffff163373ffffffffffffffffffffffffffffffffffffffff161461017c576040517f08c379a000000000000000000000000000000000000000000000000000000000815260040161017390610c36565b60405180910390fd5b60026000600160009054906101000a900473ffffffffffffffffffffffffffffffffffffffff1673ffffffffffffffffffffffffffffffffffffffff1673ffffffffffffffffffffffffffffffffffffffff16815260200190815260200160002054905090565b600160009054906101000a900473ffffffffffffffffffffffffffffffffffffffff1673ffffffffffffffffffffffffffffffffffffffff163373ffffffffffffffffffffffffffffffffffffffff1614610273576040517f08c379a000000000000000000000000000000000000000000000000000000000815260040161026a90610c36565b60405180910390fd5b808060026000600160009054906101000a900473ffffffffffffffffffffffffffffffffffffffff1673ffffffffffffffffffffffffffffffffffffffff1673ffffffffffffffffffffffffffffffffffffffff168152602001908152602001600020541015610318576040517f08c379a000000000000000000000000000000000000000000000000000000000815260040161030f90610c76565b60405180910390fd5b61036a82600260003373ffffffffffffffffffffffffffffffffffffffff1673ffffffffffffffffffffffffffffffffffffffff168152602001908152602001600020546109b190919063ffffffff16565b600260003373ffffffffffffffffffffffffffffffffffffffff1673ffffffffffffffffffffffffffffffffffffffff1681526020019081526020016000208190555060003373ffffffffffffffffffffffffffffffffffffffff16836040516103d390610b95565b60006040518083038185875af1925050503d8060008114610410576040519150601f19603f3d011682016040523d82523d6000602084013e610415565b606091505b5050905080610459576040517f08c379a000000000000000000000000000000000000000000000000000000000815260040161045090610bf6565b60405180910390fd5b505050565b60606000806000600160009054906101000a900473ffffffffffffffffffffffffffffffffffffffff1673ffffffffffffffffffffffffffffffffffffffff163373ffffffffffffffffffffffffffffffffffffffff16146104f5576040517f08c379a00000000000000000000000000000000000000000000000000000000081526004016104ec90610c36565b60405180910390fd5b6000600160009054906101000a900473ffffffffffffffffffffffffffffffffffffffff1660026000600160009054906101000a900473ffffffffffffffffffffffffffffffffffffffff1673ffffffffffffffffffffffffffffffffffffffff1673ffffffffffffffffffffffffffffffffffffffff168152602001908152602001600020543083805461058990610dd1565b80601f01602080910402602001604051908101604052809291908181526020018280546105b590610dd1565b80156106025780601f106105d757610100808354040283529160200191610602565b820191906000526020600020905b8154815290600101906020018083116105e557829003601f168201915b50505050509350935093509350935090919293565b6000341161065a576040517f08c379a000000000000000000000000000000000000000000000000000000000815260040161065190610c16565b60405180910390fd5b6106ce3460026000600160009054906101000a900473ffffffffffffffffffffffffffffffffffffffff1673ffffffffffffffffffffffffffffffffffffffff1673ffffffffffffffffffffffffffffffffffffffff168152602001908152602001600020546109c790919063ffffffff16565b60026000600160009054906101000a900473ffffffffffffffffffffffffffffffffffffffff1673ffffffffffffffffffffffffffffffffffffffff1673ffffffffffffffffffffffffffffffffffffffff16815260200190815260200160002081905550565b600160009054906101000a900473ffffffffffffffffffffffffffffffffffffffff1673ffffffffffffffffffffffffffffffffffffffff163373ffffffffffffffffffffffffffffffffffffffff16146107c5576040517f08c379a00000000000000000000000000000000000000000000000000000000081526004016107bc90610c36565b60405180910390fd5b818060026000600160009054906101000a900473ffffffffffffffffffffffffffffffffffffffff1673ffffffffffffffffffffffffffffffffffffffff1673ffffffffffffffffffffffffffffffffffffffff16815260200190815260200160002054101561086a576040517f08c379a000000000000000000000000000000000000000000000000000000000815260040161086190610c76565b60405180910390fd5b6108bc83600260003373ffffffffffffffffffffffffffffffffffffffff1673ffffffffffffffffffffffffffffffffffffffff168152602001908152602001600020546109b190919063ffffffff16565b600260003373ffffffffffffffffffffffffffffffffffffffff1673ffffffffffffffffffffffffffffffffffffffff1681526020019081526020016000208190555060008273ffffffffffffffffffffffffffffffffffffffff168460405161092590610b95565b60006040518083038185875af1925050503d8060008114610962576040519150601f19603f3d011682016040523d82523d6000602084013e610967565b606091505b50509050806109ab576040517f08c379a00000000000000000000000000000000000000000000000000000000081526004016109a290610c56565b60405180910390fd5b50505050565b600081836109bf9190610d2e565b905092915050565b600081836109d59190610cd8565b905092915050565b6000813590506109ec81610f68565b92915050565b600081359050610a0181610f7f565b92915050565b600060208284031215610a1957600080fd5b6000610a27848285016109f2565b91505092915050565b60008060408385031215610a4357600080fd5b6000610a51858286016109f2565b9250506020610a62858286016109dd565b9150509250929050565b610a7581610d62565b82525050565b6000610a8682610cb1565b610a908185610cc7565b9350610aa0818560208601610d9e565b610aa981610e61565b840191505092915050565b6000610ac1601283610cc7565b9150610acc82610e72565b602082019050919050565b6000610ae4600e83610cc7565b9150610aef82610e9b565b602082019050919050565b6000610b07603583610cc7565b9150610b1282610ec4565b604082019050919050565b6000610b2a600083610cbc565b9150610b3582610f13565b600082019050919050565b6000610b4d601083610cc7565b9150610b5882610f16565b602082019050919050565b6000610b70601283610cc7565b9150610b7b82610f3f565b602082019050919050565b610b8f81610d94565b82525050565b6000610ba082610b1d565b9150819050919050565b60006080820190508181036000830152610bc48187610a7b565b9050610bd36020830186610a6c565b610be06040830185610b86565b610bed6060830184610a6c565b95945050505050565b60006020820190508181036000830152610c0f81610ab4565b9050919050565b60006020820190508181036000830152610c2f81610ad7565b9050919050565b60006020820190508181036000830152610c4f81610afa565b9050919050565b60006020820190508181036000830152610c6f81610b40565b9050919050565b60006020820190508181036000830152610c8f81610b63565b9050919050565b6000602082019050610cab6000830184610b86565b92915050565b600081519050919050565b600081905092915050565b600082825260208201905092915050565b6000610ce382610d94565b9150610cee83610d94565b9250827fffffffffffffffffffffffffffffffffffffffffffffffffffffffffffffffff03821115610d2357610d22610e03565b5b828201905092915050565b6000610d3982610d94565b9150610d4483610d94565b925082821015610d5757610d56610e03565b5b828203905092915050565b6000610d6d82610d74565b9050919050565b600073ffffffffffffffffffffffffffffffffffffffff82169050919050565b6000819050919050565b60005b83811015610dbc578082015181840152602081019050610da1565b83811115610dcb576000848401525b50505050565b60006002820490506001821680610de957607f821691505b60208210811415610dfd57610dfc610e32565b5b50919050565b7f4e487b7100000000000000000000000000000000000000000000000000000000600052601160045260246000fd5b7f4e487b7100000000000000000000000000000000000000000000000000000000600052602260045260246000fd5b6000601f19601f8301169050919050565b7f5769746864726177616c206661696c65642e0000000000000000000000000000600082015250565b7f496e76616c69642046756e647321000000000000000000000000000000000000600082015250565b7f536f72727920796f7520617265206e6f7420417574686f726973656420746f2060008201527f6d616b652074686973207472616e73616374696f6e0000000000000000000000602082015250565b50565b7f5472616e73666572206661696c65642e00000000000000000000000000000000600082015250565b7f496e737566696369656e742046756e6473210000000000000000000000000000600082015250565b610f7181610d62565b8114610f7c57600080fd5b50565b610f8881610d94565b8114610f9357600080fd5b5056fea2646970667358221220f2b1c69d0314df89dc446761b9bb1e340206077fffc72b7af51d5d6d29cd601764736f6c63430008040033a26469706673582212202741d34ea052e33f6bbbc355feb545e443b7dcba0bad2196f609a42b2c0def4264736f6c63430008040033",
  "linkReferences": {},
  "deployedLinkReferences": {}
}